:020000040800F2
:10000000B806002089010008C9330008A9100008BB
:1000100059310008F9070008C74B0008000000002C
:10002000000000000000000000000000DD400008AB
:10003000510C000800000000193F0008114400089E
:10004000A3010008A3010008A3010008A301000800
:10005000A3010008A3010008A3010008A3010008F0
:10006000A3010008A3010008A3010008A3010008E0
:10007000A3010008A3010008A3010008A3010008D0
:10008000A3010008A3010008A3010008A3010008C0
:10009000A3010008A3010008A3010008A3010008B0
:1000A000A3010008A3010008A3010008A3010008A0
:1000B000A3010008A3010008A3010008A301000890
:1000C000A3010008A3010008A3010008A301000880
:1000D000A3010008A3010008A3010008714800085B
:1000E000A3010008A3010008A301000800F002F822
:1000F00000F03AF80AA090E8000C82448344AAF188
:100100000107DA4501D100F02FF8AFF2090EBAE885
:100110000F0013F0010F18BFFB1A43F0010318473B
:10012000C0720000E0720000103A24BF78C878C1A5
:10013000FAD8520724BF30C830C144BF04680C60ED
:10014000704700000023002400250026103A28BF35
:1001500078C1FBD8520728BF30C148BF0B60704739
:100160001FB51FBD10B510BD00F044F81146FFF7D4
:10017000F7FF04F02FFF00F062F803B4FFF7F2FF7F
:1001800003BC00F065F800000948804709480047B3
:10019000FEE7FEE7FEE7FEE7FEE7FEE7FEE7FEE737
:1001A000FEE7FEE704480549054A064B7047000094
:1001B00015440008ED000008B8000020B806002033
:1001C000B8020020B802002070477047704710B591
:1001D00000F008F8006810BD10B5044600F002F801
:1001E000046010BD0048704754000020004870476C
:1001F000540000207546FFF7F9FFAE46050069463A
:10020000534620F00700854618B020B5FFF7CAFF17
:10021000BDE820404FF000064FF000074FF0000807
:100220004FF0000B21F00701AC46ACE8C009ACE888
:10023000C009ACE8C009ACE8C0098D46704710B5EC
:100240000446AFF300802046BDE81040FFF795BF9D
:1002500001491820ABBEFEE726000200704721B11D
:10026000826842F00102826003E0826822F00102AB
:1002700082607047014600208A6802F004020AB1D9
:10028000012000E0002070470146C86C80B2704732
:100290000246002013680B400BB1012000E0002053
:1002A0007047014600208A6802F008020AB1012066
:1002B00000E000207047000030B502460020002317
:1002C00050680F4C20400D790C6844EA0524204307
:1002D000506090680B4C2040D1E902542C434D797A
:1002E00044EA450420439060D06A20F470000C7CFE
:1002F000641EE4B2234340EA0350D06230BD0000E4
:10030000FFFEF0FFFDF7F1FFF0B504460D460020BB
:100310000021092D11DDE068A5F10A0606EB46076C
:10032000072606FA07F18843A5F10A0606EB4606FA
:1003300003FA06F10843E0600CE0206905EB45078D
:10034000072606FA07F1884305EB450603FA06F18E
:1003500008432061072A0FDA606B561E06EB8607FA
:100360001F2606FA07F18843561E06EB860605FA95
:1003700006F10843606322E00D2A0FDA206BD61FD6
:1003800006EB86071F2606FA07F18843D61F06EB01
:10039000860605FA06F10843206310E0E06AA2F140
:1003A0000D0606EB86071F2606FA07F18843A2F121
:1003B0000D0606EB860605FA06F10843E062F0BD7D
:1003C000816841F008018160704721B1826842F480
:1003D000A002826003E0826822F4A002826070477B
:1003E000816841F0040181607047000010B5044647
:1003F0000523012221460948FFF786FF012107480E
:10040000FFF7E3FF00BF02210448FFF741FF002888
:10041000F9D00248FFF738FF10BD0000002401406A
:1004200000B587B00121480203F0A4FD012104209A
:1004300003F0A0FD0121084603F07CFD4FF40040CD
:1004400003F06CFD4120ADF8180000208DF81B0072
:1004500003208DF81A0006A9164800F005FD0020BB
:100460008DF809008DF8080004904FF46020039087
:100470000020019001208DF8140001A90E48FFF71B
:100480001BFF01210C48FFF7EAFE0B48FFF798FF1E
:1004900000BF0948FFF705FF0128FAD00648FFF71B
:1004A0009FFF00BF0448FFF7E5FE0128FAD007B020
:1004B00000BD0000000801400024014010B5514873
:1004C000007851490978884212DD50A004F0C3F940
:1004D00002214C48007804F0A1F954A004F0BBF9C3
:1004E00002215348007804F099F952A004F0B3F9BE
:1004F0004448007850490978884212DA4FA004F045
:10050000AAF902213F48007804F088F947A004F0D6
:10051000A2F902214648007804F080F945A004F0D1
:100520009AF94D4800784D490978884212DD4CA06F
:1005300004F091F902214848007804F06FF93BA0DB
:1005400004F089F902214D48007804F067F939A0D8
:1005500004F081F94048007849490978884212DA64
:1005600048A004F078F902213B48007804F056F9DD
:100570002EA004F070F902214048007804F04EF9F2
:100580002CA004F068F9464800884649098888424A
:100590000ADD45A004F05FF904214148008804F019
:1005A0003DF924A004F057F94548008845490988D9
:1005B00088420ADD44A004F04EF904214048008836
:1005C00004F02CF91BA004F046F93D480088464988
:1005D000098888420ADA45A004F03DF90421384828
:1005E000008804F01BF913A004F035F900F03AFD7F
:1005F000012805D145A004F02EF90EA004F02BF936
:1006000010BD0000180000201E0000205468652066
:1006100054656D70657261747572652069732074BC
:100620006F6F20486967683A000000002E000000E4
:10063000300000200D0A00001F00002054686520D3
:1006400054656D706572617475726520697320748C
:100650006F6F204C6F773A001900002020000020B7
:100660005468652048756D696469747920697320E0
:10067000746F6F20486967683A00000031000020FD
:10068000210000205468652048756D69646974799B
:1006900020697320746F6F204C6F773A0000000060
:1006A0001A0000202200002054686520536D6F6BF3
:1006B0006520697320746F6F20486967683A00008D
:1006C0001C00002024000020546865204C696768E5
:1006D00074696E74656E7369747920697320746FC0
:1006E0006F20486967683A0026000020546865203A
:1006F0004C69676874696E74656E73697479206992
:100700007320746F6F204C6F773A000054686572E5
:10071000652061726520737472616E676572732003
:1007200077686F20627265616B20696E746F2074E8
:10073000686520686F75736520696C6C6567616CAE
:100740006C79210010B502F03DF902F071F902F068
:10075000A5F902F0DBF902F011FA002003F0D2FB58
:1007600010BD10B502F03CF902F070F902F0A4F9E6
:1007700002F0DAF902F00CFA642003F0C3FB10BDBA
:1007800008B50121082003F0F5FB10208DF80300C7
:100790004002ADF8000003208DF8020069460448CD
:1007A00000F062FB4FF40051014800F03AFC08BD34
:1007B000000C014010B54FF40051024800F031FC2C
:1007C00010BD0000000C014010B54FF4005102486C
:1007D00000F029FC10BD0000000C014010B5FFF72F
:1007E000F3FF4FF4FA7000F034FAFFF7E3FF4FF431
:1007F000FA7000F02EFA10BD00BFFEE710B51E48DB
:1008000000881E490988884234DA1D48007888B378
:100810001C48007803280FD11B48007802280BD110
:100820001A480078032807D119480078012803D115
:100830001348007802281DD04FF4FA7000F009FA2E
:100840000A201449087008460078404240B202F07D
:10085000E7FC012000F009FA00200E490870084664
:1008600090F9000002F0DCFC012000F0FEF900200D
:100870000349087010BD00001C0000202600002065
:100880002D0000203400002035000020280000202A
:10089000360000203300002010B51C4800881C4999
:1008A0000988884231DD1B48007870BB1A480078FF
:1008B00003280DD119480078022809D1184800787A
:1008C000032805D11748007810B912480078E0B124
:1008D0004FF4FA7000F0BDF90A2013490870084679
:1008E00090F9000002F09CFC012000F0BEF900200D
:1008F0000D490870084690F9000002F091FC0120B3
:1009000000F0B3F901200349087010BD1C0000205D
:10091000240000202D00002034000020350000209D
:1009200028000020360000203300002010B50A48BF
:10093000007803280FD10948007802280BD1084815
:100940000078032807D10748007820B906480078C6
:1009500008B100F00BF810BD340000203500002075
:1009600028000020360000202D00002010B54FF494
:10097000FA7000F06EF90A200C49087008460078F9
:10098000404240B202F04CFC012000F06EF9002021
:1009900006490870084690F9000002F041FC012069
:1009A00000F063F900200249087010BD33000020F8
:1009B0002D00002010B50B480078032810D10A48FC
:1009C000007802280CD109480078032808D108488B
:1009D0000078012804D10748007808B900F00CF825
:1009E00010BD000034000020350000202800002049
:1009F000360000202D00002010B54FF4FA7000F0F2
:100A000028F90A200C490870084690F9000002F005
:100A100007FC012000F029F900200749087008466A
:100A200090F9000002F0FCFB012000F01EF902200A
:100A30000249087010BD0000330000202D00002086
:100A400010B5002400F024F804E0601CC4B20120BA
:100A500000F017F90D48006808B1642CF5DB642C30
:100A600001DB012010BD002404E0601CC4B20120A1
:100A700000F007F90548006808B9642CF5DB642C20
:100A800001DB0120EEE70020ECE700000401214239
:100A900008B50121042003F06DFA0220ADF8000032
:100AA00048208DF803006946014800F0DDF908BDD3
:100AB0000008014008B50121042003F05BFA022080
:100AC000ADF8000010208DF8030003208DF802001F
:100AD0006946024800F0C8F908BD0000000801405E
:100AE00008B50121042003F045FA0220ADF800000A
:100AF00010208DF8030003208DF802006946064897
:100B000000F0B2F90221044800F08DFA00F072F80A
:100B1000FFF796FF08BD00000008014010B5002453
:100B200004E0601CC4B2012000F0ABF80D4800687E
:100B300008B1642CF5DB002404E0601CC4B2012081
:100B400000F09FF80748006808B9642CF5DB2820FE
:100B500000F097F80348006808B1012010BD00209C
:100B6000FCE700000401214270B50024002506E0E6
:100B70006006040EFFF7D2FF0443681CC5B2082DBF
:100B8000F6DB204670BD2DE9FC4105460E461746B2
:100B9000984600F02FF8FFF753FF30BB002405E024
:100BA000FFF7E2FF0DF80400601CC4B2052CF7DB70
:100BB0009DF800009DF8011008449DF802100844BB
:100BC0009DF8031008449DF80410884210D19DF848
:100BD000000030709DF8010088F800009DF80200C8
:100BE00028709DF80300387002E00120BDE8FC8108
:100BF0000020FBE710B5FFF75DFF00200649086005
:100C0000142000F026F801200449C1F884011E20B8
:100C100000F037F810BD000084012142000021429D
:100C200010B507E006A20121084603F067F864202A
:100C300000F00FF8FFF754FF0028F3D010BD0000BC
:100C40004448543131204552524F52210000000097
:100C5000704700B5034603E04FF47A7000F011F8D6
:100C6000181EA3F10103F7D100BD10B5044603E03F
:100C70004FF47A70FFF7EDFF201EA4F10104F7D1C5
:100C800010BD00EBC001C9004FF0E022516100210E
:100C900091610521116100BF4FF0E021096901F464
:100CA00080310029F8D004214FF0E0221161704713
:100CB00010B5234800782349097888420BDC224884
:100CC000007822490978884205DC214800882149BA
:100CD0000988884232DD2048007803280DD11F485A
:100CE0000078012809D11E480078032805D11D4845
:100CF000007810B91C48007800B314201B49087014
:100D0000084690F9000002F041FA012015490870E8
:100D100000F0B0FB052811D114480078143040B21F
:100D200012490870084690F900003C2801DD1420A3
:100D300008700E4890F9000002F028FA10BD00007B
:100D4000180000201E0000201900002020000020B4
:100D50001A0000202200002034000020350000206E
:100D6000280000202E000020360000203200002045
:100D700010B50A48007803280FD1094800780128E7
:100D80000BD108480078032807D10748007820B124
:100D90000648007808B900F00BF810BD34000020B8
:100DA00035000020280000202E0000203600002002
:100DB00010B5002005490870084690F9000002F0BF
:100DC000E5F900200249087010BD00003200002043
:100DD0002E00002010B50B480078032810D10A48D7
:100DE000007801280CD109480078032808D1084868
:100DF0000078012804D10748007808B900F00CF801
:100E000010BD000034000020350000202800002024
:100E1000360000202E00002010B514201049087064
:100E2000084690F9000002F0B1F902200D4908705F
:100E300000F020FB052811D109480078143040B299
:100E400007490870084690F900003C2801DD14208D
:100E50000870034890F9000002F098F910BD0000F6
:100E6000320000202E0000202DE9F041024600252E
:100E70000026002000230024002791F803C00CF076
:100E80000F0591F803C00CF0100CBCF1000F03D05B
:100E900091F802C04CEA050591F800C0BCF1000FC2
:100EA00031D0146800202BE04FF0010C0CFA00F355
:100EB000B1F800C00CEA03069E4220D183004FF037
:100EC0000F0C0CFA03F7BC4305FA03FC4CEA0404CC
:100ED00091F803C0BCF1280F06D14FF0010C0CFAB9
:100EE00000FCC2F814C00AE091F803C0BCF1480F3E
:100EF00005D14FF0010C0CFA00FCC2F810C0401CE8
:100F00000828D1D31460B1F800C0BCF1FF0F34DD64
:100F1000546800202EE000F1080C4FF0010808FA98
:100F20000CF3B1F800C00CEA03069E4221D1830005
:100F30004FF00F0C0CFA03F7BC4305FA03FC4CEA24
:100F4000040491F803C0BCF1280F05D100F1080C8E
:100F500008FA0CF8C2F8148091F803C0BCF1480FED
:100F600007D100F1080C4FF0010808FA0CF8C2F89C
:100F70001080401C0828CED35460BDE8F0810000EA
:100F8000F0B50A46002300240021002500F00046A9
:100F9000B6F1004F02D11D4EF16901E01B4E7168A0
:100FA000C0F3034583B200F44016B6F5401F08D1E4
:100FB00021F07061154E766826F07066134F7E60E2
:100FC00012E000F48016B6F5801F06D1032606FA5B
:100FD00005F4A14341F0706106E0460D360103FAC5
:100FE00006F6B14341F0706122B1460D360103FAB5
:100FF00006F6314300F00046B6F1004F02D1034E31
:10100000F16101E0014E7160F0BD0000000001409F
:101010000246002093680B400BB1012000E0002045
:10102000704741617047016170470AB1016100E09A
:10103000416170472DE9F04107460C460025002626
:1010400008E03846FFF7D2F905440520FFF701FE16
:10105000701CC6B2A642F4DBB5FBF4F080B2BDE86A
:10106000F081000010B580210148FFF7D1FF10BDCD
:101070000008014008B50121042002F07BFF282070
:101080008DF803008020ADF8000003208DF80200E9
:1010900069460448FFF7E8FE80210248FFF7C1FFD8
:1010A00008BD00000008014000BFFEE710B5114870
:1010B00000781149097888421BDD10480078032820
:1010C0000FD10F48007803280BD10E480078032871
:1010D00007D10D480078022803D10C480078012878
:1010E00007D04FF480510A48FFF79BFF00200649C4
:1010F000087010BD180000201F00002034000020E0
:1011000035000020280000202B00002036000020A1
:101110000008014010B5104800781049097888424D
:1011200019DA0F48007803280DD10E4800780328FB
:1011300009D10D480078032805D10C48007810B972
:101140000B48007838B14FF480510A48FFF76BFF25
:1011500001200649087010BD180000201F00002063
:101160003400002035000020280000202B00002043
:10117000360000200008014008B50121042002F0DB
:10118000F9FE10208DF803000002ADF800000320E6
:101190008DF8020069460448FFF766FE4FF480515F
:1011A0000148FFF73EFF08BD0008014010B5104898
:1011B000007803281AD10F480078032816D10E486A
:1011C0000078032812D108210C48FFF721FF68B9E5
:1011D0000B48007850B10B48007838B94FF4805173
:1011E0000948FFF71EFF00200549087010BD0000E8
:1011F000340000203500002028000020000C0140B1
:101200002B000020360000200008014010B51048D7
:10121000007803281AD10F480078032816D10E4809
:101220000078032812D108210C48FFF7F1FE68B9B5
:101230000B48007850B90B480078012806D101030B
:101240000948FFF7F0FE02200549087010BD0000B4
:10125000340000203500002028000020000C014050
:101260002B000020360000200008014010B548483F
:10127000007805282CD147480078012828D1464815
:101280000078042824D145480078032820D102F0B2
:10129000EFF843A20121084602F030FD3C480078F7
:1012A000052813D13B48007801280FD13A4800782F
:1012B00004280BD13E48007840B93848007803280C
:1012C00004D101F0ADFC01203949087001F078FC2F
:1012D0002F480078052814D12E480078022810D114
:1012E0002D48007804280CD12C480078032808D118
:1012F00002F0BEF82FA20121084602F0FFFC02F026
:10130000C3FE23480078052840D1224800780328EE
:101310003CD121480078042838D12048007803289F
:1013200034D102F0A5F827A20121084602F0E6FC1C
:1013300017480078052813D11648007803280FD1E4
:101340001548007804280BD114480078032807D1E9
:101350001F48007820B901F095FF01201C49087052
:101360000B480078052811D10A48007803280DD1D0
:1013700009480078042809D108480078032805D1D5
:1013800013480078012801D101F0D4FF10BD0000FE
:101390003400002035000020280000202F0000200D
:1013A0004272656174682D4C45442D4F4E0000001B
:1013B0003800002057617465722D4C696768742D80
:1013C0004F4E00004D757369632053686F770000BE
:1013D0003900002010B5FFF745FE01281ED1FFF7A8
:1013E00041FE012807D10E48007820B9FFF7C8F95F
:1013F00001200B49087000200A4908700AE0FFF735
:10140000EDF9FFF75BF801F063FD06480078401C3A
:1014100004490870034800780528F0DB10BD00007F
:101420003A0000202A00002010B50748007807493C
:101430000978884207DD01F04DFB01F067FB03F0FE
:101440000FFCFFF735FC10BD190000202000002024
:1014500010B50648007806490978884205DA01F097
:1014600071FB01F01BFB03F02FFC10BD19000020E5
:101470002100002010B501217748FFF7C9FDD8B938
:101480000120FFF7E6FB01217348FFF7C1FD98B982
:101490000120FFF7DEFB71480078401C6F4908709F
:1014A00008460078072190FBF1F201FB12006B491E
:1014B000087001206A49087002216748FFF7A8FDFB
:1014C000002865D10120FFF7C4FB02216248FFF725
:1014D0009FFD00285CD10120FFF7BBFB614800782D
:1014E000401C604908705D48007898B15B480078FE
:1014F00001280FD05948007803280BD057480078AE
:10150000062807D05548007805280CD156480078A1
:10151000022808D153480078052190FBF1F201FB25
:101520001200504908704D480078022812D04B48EC
:10153000007804280ED049480078052802D14A488E
:10154000007838B14548007805280DD14648007824
:10155000032809D143490878C11700EB917189101C
:10156000A0EB81013F4A11703C48007805280CD15E
:101570003D480078012808D13A480078032190FBC3
:10158000F1F201FB1200374908700220344908705B
:1015900008213148FFF73CFD88BB0120FFF759FBCC
:1015A00008212D48FFF734FD48BB0120FFF751FB10
:1015B0002E48007828B900202D49087001202B49B9
:1015C00008702B480078401C29490870087800EB07
:1015D000D0714910A0EB4101254A117025480078CF
:1015E000401C2449087008460078032190FBF1F262
:1015F00001FB12001F4908700320194908704FF4BD
:1016000080511548FFF704FD70B90120FFF721FB59
:101610004FF480511048FFF7FBFC28B90120FFF779
:1016200018FB04200E4908704FF480711248FFF730
:10163000EFFC70B90120FFF70CFB4FF480710E48EE
:10164000FFF7E6FC28B90120FFF703FB052004495A
:1016500008700348007810BD000C014034000020E1
:1016600028000020350000202F0000203700002037
:1016700036000020440000200008014008B5012188
:101680000D2002F077FC01212248FFF779FC224867
:10169000406820F020002049486048208DF8030071
:1016A00041F20300ADF8000003208DF80200694606
:1016B0001A48FFF7D9FB48208DF803004FF48070DB
:1016C000ADF8000003208DF8020069461448FFF7CA
:1016D000CBFB01211148FFF7A6FC02210F48FFF7C1
:1016E000A2FC4FF480510D48FFF79DFC4FF4807130
:1016F0000B48FFF798FC48208DF803000820ADF850
:10170000000003208DF8020069460448FFF7ACFB97
:1017100008BD000000023000002004E0000C014081
:101720000008014010B58E480078012827D18D4867
:101730000078012823D18C48007804281FD1810229
:101740008A48FFF765FCD0B901F092FE884800781E
:10175000401E87490870084600780F2805DB0846B8
:10176000007884490978884202DA1E20804908708E
:1017700002F0E2F880A20E21012002F0BFFA7848C0
:10178000007801281FD17748007802281BD17648BD
:101790000078042817D181027448FFF739FC90B90A
:1017A00001F066FE73480078401E724908700846D2
:1017B000007808B90F20087002F0BEF86EA20E2162
:1017C000022002F09BFA66480078012827D165487C
:1017D0000078032823D16448007804281FD18102AF
:1017E0006248FFF715FCD0B901F042FE634800786B
:1017F000401E6249087008460078642805DC0846E7
:1018000000785F490978884202DA55205B49087000
:1018100002F092F858A20E21032002F06FFA50480D
:101820000078012820D14F48007804281CD14E4868
:101830000078042818D181024C48FFF7E9FB98B9D9
:1018400001F016FE02F078F84D480078401E4C4931
:101850000870084600781E2801DA2820087046A281
:101860000E21042002F04AFA3D480078022822D1D5
:101870003C48007801281ED13B48007804281AD142
:1018800081023A48FFF7C4FBA8B901F0F1FD3D48D9
:101890000088401E3B49088008460088B0F5C87F94
:1018A00002DA4FF4FA70088002F0A8F832A20E2192
:1018B000012002F023FA2A480078022829D1294879
:1018C0000078022825D128480078042821D18102F7
:1018D0002648FFF79DFBE0B901F0CAFD2A480088C1
:1018E000401E2949088008460088B0F5966F05DC3F
:1018F0000846008825490988884203DA4FF4617058
:101900002149088002F07AF81BA20E21022002F081
:10191000F5F913480078022820D1124800780328EE
:101920001CD111480078042818D181020F48FFF714
:101930006FFB98B901F09CFD14480088401E1349C4
:10194000088008460088502801DA5A20088002F0F2
:1019500055F809A20E21032002F0D0F910BD0000B5
:10196000340000203500002028000020000C014039
:101970001E0000201F0000203C2D00002000002041
:10198000210000202200002024000020260000204A
:1019900010B53F480078012802D13E48007810B1C8
:1019A0003B48007840B901F063FD01F041FF0020A1
:1019B00039490870394908703548007801280CD138
:1019C00034480078012808D101F052FD01F0B4FF3D
:1019D000002031490870314908702D4800780128ED
:1019E0000CD12C480078022808D101F041FD02F00A
:1019F00005F8002028490870284908702448007814
:101A000001280ED12348007803280AD101F030FDC7
:101A100001F09EFE01F0C6FE00201F4908701F491C
:101A200008701B48007801280CD11A480078042857
:101A300008D101F01DFD01F057FE00201649087085
:101A4000164908701248007801280DD11148007815
:101A5000052809D11048007830B901F009FD02F0DD
:101A600019F800200D4908700948007801280ED1A6
:101A70000848007806280AD101F0FAFC02F054F870
:101A800002F078F80020044908700449087010BD7D
:101A900028000020340000202F0000203900002002
:101AA00010B5F6480078012820D1F54800780128C3
:101AB0001CD1F4480078032818D10821F248FFF718
:101AC000A7FA98B901F0D4FCF0480078401CEF491F
:101AD000087008460078232801DD1420087001F002
:101AE0002BFFEBA20E21012002F008F9E348007859
:101AF000012823D1E248007802281FD1E14800786C
:101B000003281BD10821E048FFF782FAB0B901F0A1
:101B1000AFFCE0480078401CDE49087008460078B9
:101B2000DA490978884202DD0A20DA49087001F0B2
:101B300003FFD7A20E21022002F0E0F8CF48007880
:101B4000012820D1CE48007803281CD1CD48007848
:101B5000032818D10821CC48FFF75AFA98B901F0A8
:101B600087FCCD480078401CCB49087008460078B7
:101B7000632801DD3220087001F0DEFEC4A20E21D0
:101B8000032002F0BBF8BD480078012823D1BC48EF
:101B9000007804281FD1BB48007803281BD10821F6
:101BA000B948FFF735FAB0B901F062FC01F0C4FEA4
:101BB000BA480078401CB949087008460078B64910
:101BC0000978884202DD1E20B4490870B0A20E21B7
:101BD000042002F093F8A9480078022822D1A848EE
:101BE000007801281ED1A748007803281AD10821BF
:101BF000A548FFF70DFAA8B901F03AFCA8480088FB
:101C0000401CA749088008460088B0F57A7F02DDAD
:101C10004FF4FA70088001F0F1FE9DA20E21012020
:101C200002F06CF895480078022820D1944800789A
:101C300002281CD193480078032818D10821924823
:101C4000FFF7E6F998B901F013FC96480088401CAC
:101C50009449088008460088C82801DD962008803D
:101C600001F0CCFE8AA20E21022002F047F8834840
:101C70000078022827D182480078032823D18148A0
:101C8000007803281FD108217F48FFF7C1F9D0B998
:101C900001F0EEFB84480088401C83490880084618
:101CA0000088322805DB084600887E49098888427A
:101CB00002DD32207C49088001F0A0FE74A20E21D2
:101CC000032002F01BF86D480078032837D16C48D8
:101CD0000078012833D16B48007803282FD10821E0
:101CE0006948FFF795F950BB01F0C2FB6F480078D7
:101CF00080B901F02DFD01F055FD6DA205210120F7
:101D000001F0FCFF6BA20521012001F0F7FFFFF7B6
:101D10002FF80FE001F01CFD01F044FD64A2052145
:101D2000012001F0EBFF64A20521012001F0E6FF94
:101D3000FFF750F856A20E21012001F0DFFF4F48B7
:101D40000078032837D14E480078022833D14D4817
:101D5000007803282FD108214B48FFF759F950BBD1
:101D600001F086FB5148007880B901F0F1FC01F0E8
:101D700019FD4FA20921022001F0C0FF4DA2092147
:101D8000022001F0BBFFFEF7D1FD0FE001F0E0FC07
:101D900001F008FD46A20921022001F0AFFF46A292
:101DA0000921022001F0AAFFFEF704FE38A20E214D
:101DB000022001F0A3FF31480078032837D13048D2
:101DC0000078032833D12F48007803282FD1082129
:101DD0002D48FFF71DF950BB01F04AFB334800784E
:101DE00080B901F0B5FC01F0DDFC31A2082103202F
:101DF00001F084FF2FA20821032001F07FFFFFF7ED
:101E0000D5F90FE001F0A4FC01F0CCFC28A20821D8
:101E1000032001F073FF28A20821032001F06EFFC8
:101E2000FFF7F4F91AA20E21032001F067FF13480F
:101E3000007803285CD112480078042858D1114852
:101E40000078032854D108210F48FFF7E1F8A8BB18
:101E500001F00EFB1548007888BB01F079FC01F019
:101E6000A1FC13A20921042001F048FF11A20921BD
:101E7000042001F043FF02F073FF33E03400002040
:101E80003500002028000020000C01401E0000202A
:101E90003C2D00001F000020200000202100002019
:101EA0002200002024000020260000203600002010
:101EB000202020004F4646004F4E000018E0FFE76C
:101EC00001F046FC01F06EFCAFF21C020921042077
:101ED00001F014FFAFF220020921042001F00EFFEF
:101EE00002F06EFFAFF258020E21042001F006FF4F
:101EF000EC48007805281CD1EB480078012818D15F
:101F0000EA480078032814D10821E948FFF780F84F
:101F100010B1E848007860B101F0AAFA0120E54963
:101F2000087001F0FFFEAFF298020E21012001F0CF
:101F3000E5FE02F04BFEDB48007805281CD1DA48AC
:101F40000078022818D1D9480078032814D1082134
:101F5000D748FFF75DF810B1D648007860B101F0BE
:101F600087FA0220D349087001F098FEAFF2E00230
:101F70000E21022001F0C2FE02F0A2F9C948007849
:101F800005281CD1C8480078032818D1C748007814
:101F9000032814D10821C648FFF73AF810B1C54804
:101FA000007860B101F064FA0320C249087001F0C2
:101FB00095FDAFF224120E21032001F09FFEFFF7E2
:101FC00055F9B8480078062857D1B7480078012855
:101FD00053D1B648007803284FD10821B448FFF701
:101FE00017F8E8BB01F044FAB348007888B901F06B
:101FF0009BFD01F0BFFDB1A20621012001F07EFE94
:10200000AFF250120621012001F078FE00F0DAFC58
:102010002DE0A9480078012811D101F085FD01F0DB
:10202000A9FDA6A20621012001F068FEAFF27812F8
:102030000621012001F062FE00F0D2FC17E001F061
:1020400073FD01F097FD9DA20621012001F056FECF
:102050009CA20621012001F051FE00F0CFFC00E01F
:102060000BE09A480078022801D100F0C7FCAFF2DB
:10207000E0120E21012001F041FE8A480078062876
:1020800057D189480078022853D18848007803281E
:102090004FD108218648FEF7BBFFE8BB01F0E8F905
:1020A0008548007888B901F03FFD01F063FD83A207
:1020B0000621022001F022FEAFF2082206210220B2
:1020C00001F01CFE00F0B4FC2DE07B4800780128F4
:1020D00011D101F029FD01F04DFD78A20621022069
:1020E00001F00CFEAFF230220621022001F006FEC4
:1020F00000F0ACFC17E001F017FD01F03BFD6FA212
:102100000621022001F0FAFD6EA20621022001F054
:10211000F5FD00F0A9FC00E00BE06D480078022816
:1021200001D100F0A1FCAFF298220E21022001F0B3
:10213000E5FD5C480078062857D15B480078032805
:1021400053D15A48007803284FD108215848FEF748
:102150005FFFE8BB01F08CF95748007888B901F0BF
:10216000E3FC01F007FD55A20621032001F0C6FDA6
:10217000AFF2C0220621032001F0C0FD00F08EFC6A
:102180002DE04D480078012811D101F0CDFC01F07F
:10219000F1FC4AA20621032001F0B0FDAFF2E822D3
:1021A0000621032001F0AAFD00F086FC17E001F0F3
:1021B000BBFC01F0DFFC41A20621032001F09EFDE3
:1021C00040A20621032001F099FD00F083FC00E00D
:1021D0000BE040480078022801D100F07BFCAFF210
:1021E00050320E21032001F089FD2E480078062888
:1021F00057D12D480078042853D12C480078032863
:102200004FD108212A48FEF703FFE8BB01F030F95F
:102210002948007888B901F087FC01F0ABFC27A2BF
:102220000621042001F06AFDAFF278320621042075
:1022300001F064FD00F06AFC2DE01F4800780128E1
:1022400011D101F071FC01F095FC1CA206210120C6
:1022500001F054FDAFF2A0320621012001F04EFD45
:1022600000F062FC17E001F05FFC01F083FC13A2B8
:102270000621012001F042FD12A20621012001F0F9
:102280003DFD00F05FFC00E00BE013480078022801
:1022900001D100F057FCAFF208420E21042001F0FA
:1022A0002DFD10BD34000020350000202800002046
:1022B000000C01402F00002044000020202020209E
:1022C000000000005475726E000000004000002005
:1022D00041000020420000204300002010B5FE48CD
:1022E000007830B9FD48007818B901F0C1F801F064
:1022F0009FFAF948007860B9F8480078012808D1B9
:1023000001F0B6F801F094FAF5A20E21012001F0D7
:10231000F5FCF148007860B9F0480078022808D14F
:1023200001F0A6F801F084FAEDA20E21022001F0DE
:10233000E5FCE948007860B9E8480078032808D14E
:1023400001F096F801F074FAE5A20E21032001F0E5
:10235000D5FCE148007860B9E0480078042808D14D
:1023600001F086F801F064FADDA20E21042001F0EC
:10237000C5FCD9480078012806D1D848007818B99A
:1023800001F076F801F0D8FAD348007801280CD192
:10239000D2480078012808D101F06AF801F0CCFA9F
:1023A000CFA20E21012001F0A9FCCB480078012822
:1023B0000CD1CA480078022808D101F059F801F080
:1023C000BBFAC7A20E21022001F098FCC248007897
:1023D00001280CD1C1480078032808D101F048F841
:1023E00001F0AAFABEA20E21032001F087FCBA4830
:1023F000007801280CD1B9480078042808D101F0F0
:1024000037F801F099FAB6A20E21042001F076FC0B
:10241000B1480078022806D1B048007818B901F018
:1024200027F801F0EBFAAC48007802280CD1AB4851
:102430000078012808D101F01BF801F0DFFAA8A20A
:102440000E21012001F05AFCA348007802280CD18B
:10245000A2480078022808D101F00AF801F0CEFA6B
:102460009FA20E21022001F049FC9B48007802281F
:102470000CD19A480078032808D100F0F9FF01F048
:10248000BDFA97A20E21032001F038FC9248007893
:10249000032808D19148007828B900F0E9FF01F03D
:1024A00057F901F07FF98C48007803280ED18B484A
:1024B000007801280AD100F0DBFF01F049F901F0B2
:1024C00071F987A20E21012001F018FC82480078E2
:1024D00003280ED18148007802280AD100F0C8FFF5
:1024E00001F036F901F05EF97DA20E21022001F023
:1024F00005FC7948007803280ED178480078032835
:102500000AD100F0B5FF01F023F901F04BF974A2F4
:102510000E21032001F0F2FB6F48007803280ED152
:102520006E48007804280AD100F0A2FF01F010F9EB
:1025300001F038F96AA20E21042001F0DFFB6648A1
:102540000078042806D16548007818B900F090FF9B
:1025500001F0CAF86048007804280CD15F48007880
:10256000012808D100F084FF01F0BEF85CA20E2122
:10257000012001F0C3FB5848007804280CD15748CB
:102580000078022808D100F073FF01F0ADF854A2E2
:102590000E21022001F0B2FB4F48007804280CD134
:1025A0004E480078032808D100F062FF01F09CF843
:1025B0004BA20E21032001F0A1FB4748007805281B
:1025C00009D14648007830B94648007818B900F07B
:1025D0004FFF01F05FFA4048007805280FD13F48CF
:1025E000007801280BD13F48007840B900F040FF47
:1025F00001F050FA3AA20E21012001F07FFB36488B
:10260000007805280FD13548007802280BD13548CD
:10261000007840B900F02CFF01F03CFA30A20E2106
:10262000022001F06BFB2C48007805280FD12B48C5
:10263000007803280BD12B48007840B900F018FF30
:1026400001F028FA26A20E21032001F057FB2248B0
:10265000007805280AD12148007838B92148007847
:10266000012803D100F004FF01F05CFB1A48007858
:10267000052814D119480078012810D1194800788C
:1026800001280CD118480078042808D000F0F0FE8A
:1026900001F048FB12A20E21012001F02FFB0E4891
:1026A0000078052814D10D480078022810D10D4873
:1026B000007801280CD10C480078042808D000F0DC
:1026C000D7FE01F02FFB06A20E21022001F016FB1F
:1026D00001480078052809E034000020350000207A
:1026E0003C2D00002F000020280000200ED194482F
:1026F000007858B993480078022807D192480078AA
:10270000042803D000F0B4FE01F0C8FA8F48007826
:10271000052815D18A480078012811D18948007808
:1027200002280DD188480078042809D000F0A0FEC6
:1027300001F0B4FAAFF258020E21012001F0DEFAE6
:1027400082480078052815D17D480078022811D1EB
:102750007C48007802280DD17B480078042809D0F5
:1027600000F086FE01F09AFAAFF28C020E210220F0
:1027700001F0C4FA75480078052815D17048007832
:10278000032811D16F48007802280DD16E480078D7
:10279000042809D000F06CFE01F080FAAFF2C0020C
:1027A0000E21032001F0AAFA68480078052815D107
:1027B00063480078042811D16248007802280DD1BE
:1027C00061480078042809D000F052FE01F066FA52
:1027D000AFF2F4020E21042001F090FA5B48007879
:1027E00005280ED15648007858B956480078032875
:1027F00007D155480078042803D000F039FE01F0D5
:102800006DF952480078052815D14D480078012807
:1028100011D14C48007803280DD14B48007804288A
:1028200009D000F025FE01F059F9AFF24C120E214B
:10283000012001F063FA45480078052815D1404889
:102840000078022811D13F48007803280DD13E4876
:102850000078042809D000F00BFE01F03FF9AFF238
:1028600080120E21022001F049FA3848007805282C
:1028700015D133480078032811D132480078032855
:102880000DD131480078042809D000F0F1FD01F0A5
:1028900025F9AFF2B4120E21032001F02FFA2B48D4
:1028A000007806280FD12648007801280BD100F0C7
:1028B000DFFD01F039F901F05DF9AFF2DC120E2114
:1028C000012001F01BFA2148007806280FD11C488E
:1028D000007802280BD100F0CBFD01F025F901F0C2
:1028E00049F9AFF204220E21022001F007FA17483D
:1028F000007806280FD11248007803280BD100F089
:10290000B7FD01F011F901F035F9AFF22C220E21DB
:10291000032001F0F3F90D48007806280FD108488C
:10292000007804280BD100F0A3FD01F0FDF801F0C0
:1029300021F9AFF254220E21042001F0DFF910BD7D
:10294000350000202F000020280000203400002047
:1029500010B515480078032824D1144800780128C0
:1029600020D11348007805281CD11248007801288E
:1029700018D111480078A8B14FF480710F48FEF7C4
:1029800047FB78B90E48007814300D4908700846A6
:1029900000783C2801DD142008700948007840B216
:1029A00000F0F4FB10BD00003400002035000020D2
:1029B00028000020360000202E00002000080140E2
:1029C0003200002010B50020034908701021034890
:1029D000FEF727FB10BD000040000020000801406A
:1029E00010B501200349087010210348FEF71BFBB6
:1029F00010BD0000400000200008014010B502207A
:102A00000949087010210948FEF70DFB4FF4FA70D0
:102A1000FEF71FF910210548FEF703FB4FF4FA708B
:102A2000FEF717F910BD000040000020000801402B
:102A300010B520210348FEF7F4FA0020024908707F
:102A400010BD0000000801404100002010B5202109
:102A50000348FEF7E8FA01200249087010BD0000A3
:102A6000000801404100002010B520210948FEF770
:102A7000DAFA4FF4FA70FEF7ECF820210548FEF779
:102A8000D0FA4FF4FA70FEF7E4F802200249087019
:102A900010BD0000000801404100002010B54FF4B7
:102AA00080410348FEF7BDFA00200249087010BDBE
:102AB000001001404200002010B54FF4804103484F
:102AC000FEF7B1FA01200249087010BD0010014064
:102AD0004200002010B54FF480410A48FEF7A3FAE7
:102AE0004FF4FA70FEF7B5F84FF480410548FEF751
:102AF00098FA4FF4FA70FEF7ACF802200249087019
:102B000010BD0000001001404200002010B54FF43D
:102B100000410348FEF785FA00200249087010BD05
:102B2000001001404300002010B54FF4004103485D
:102B3000FEF779FA01200249087010BD001001402B
:102B40004300002010B54FF400410A48FEF76BFA2D
:102B50004FF4FA70FEF77DF84FF400410548FEF798
:102B600060FA4FF4FA70FEF774F802200249087018
:102B700010BD0000001001404300002010B54FF4CC
:102B800000510248FEF74FFA10BD0000001001404E
:102B900010B54FF400510248FEF743FA10BD000093
:102BA0000010014010B5FFF7F3FF4FF4FA70FEF785
:102BB00050F8FFF7E3FF4FF4FA70FEF74AF810BD44
:102BC00010B50020154908700BE01448007801F09A
:102BD00099F90A20FEF73DF810480078401C0F498B
:102BE00008700E4800786428EFDD00200B4908705B
:102BF0000EE00A490978C1F1640188B201F082F956
:102C00000A20FEF726F805480078401C03490870A2
:102C1000024800786428ECDD10BD00002900002087
:102C200000B589B00121042001F084F90121084692
:102C300001F0A0F90121082001F09CF918208DF87D
:102C400023004FF48070ADF8200003208DF822009F
:102C500008A91948FEF708F9184801F017FC0020E8
:102C6000ADF81A00ADF816006320ADF8180040F278
:102C7000CF20ADF8140000208DF81C0005A90F48E6
:102C800001F00AFD01A801F0F4FC6020ADF8040099
:102C90000020ADF80C000120ADF806000020ADF8D2
:102CA0000A0001A9054801F049FC0121034801F08F
:102CB000E1FB09B000BD0000000C0140000800402D
:102CC00008B50121042001F055F90121102001F07F
:102CD00051F910208DF803003020ADF800000320DA
:102CE0008DF8020069460B48FEF7BEF810208DF8FB
:102CF00003004FF46040ADF8000003208DF802009F
:102D000069460548FEF7B0F84FF400510248FEF757
:102D10008AF908BD000801400010014010B50024E8
:102D200040F22551614801F080FE002874D05F48D0
:102D300001F040FFC4B25E480078042827DAAA2CCC
:102D400003D101205A490870AAE0594800780128A7
:102D500005D1BB2C03D1022055490870A0E054488E
:102D60000078022805D1CC2C03D1032050490870EB
:102D700096E04F480078032805D1DD2C03D10420CC
:102D80004B4908708CE000204949087088E044B93C
:102D90004FF480514748FEF746F902204649087033
:102DA0007BE0012C07D121034248FEF73AF90020CD
:102DB0004149087071E0022C07D1A1033D48FEF79C
:102DC00032F902203D49087067E0032C08D14FF426
:102DD00000413848FEF725F90020384908705CE0CA
:102DE000042C0BD1142036490870084690F90000D5
:102DF00000F0CCF90220334908704EE0052C0CD1CC
:102E000000202F490870084690F9000000F0BEF934
:102E100000202C49087040E047E0062C1DD14FF4FB
:102E2000FA70FDF716FF0A2027490870084690F946
:102E3000000000F0F5F90120FDF717FF00202249FE
:102E40000870084690F9000000F0EAF90120FDF74B
:102E50000CFF02201D4908701FE0072C1DD14FF404
:102E6000FA70FDF7F6FE0A20174908700846007848
:102E7000404240B200F0D4F90120FDF7F6FE0020F8
:102E800011490870084690F9000000F0C9F90120C6
:102E9000FDF7EBFE00200D49087000200449087082
:102EA00040F22551014801F049FD10BD00480040A5
:102EB00014000020000801402B0000202C000020FE
:102EC000320000202E000020330000202D000020C2
:102ED00010B5FF2001F022FD5F4800780A2190FB29
:102EE000F1F0C4B2204601F019FD5B4800780A21D8
:102EF00090FBF1F201FB1200C4B2204601F00EFD7E
:102F0000564800780A2190FBF1F0C4B2204601F047
:102F100005FD524800780A2190FBF1F201FB1200F6
:102F2000C4B2204601F0FAFC002001F0F7FC4C4846
:102F300000780A2190FBF1F0C4B2204601F0EEFCCB
:102F4000474800780A2190FBF1F201FB1200C4B25D
:102F5000204601F0E3FC434800780A2190FBF1F0A1
:102F6000C4B2204601F0DAFC3E4800780A2190FB0A
:102F7000F1F201FB1200C4B2204601F0CFFC0020A8
:102F800001F0CCFC384800884FF47A7190FBF1F0E6
:102F9000C4B2204601F0C2FC33480088642190FB93
:102FA000F1F00A2190FBF1F201FB1200C4B22046BD
:102FB00001F0B4FC2C4800880A2190FBF1F090FB52
:102FC000F1F201FB1200C4B2204601F0A7FC264832
:102FD00000880A2190FBF1F201FB1200C4B22046E6
:102FE00001F09CFC002001F099FC204800884FF47F
:102FF0007A7190FBF1F0C4B2204601F08FFC1B48BF
:103000000088642190FBF1F00A2190FBF1F201FBB2
:103010001200C4B2204601F081FC144800880A2145
:1030200090FBF1F090FBF1F201FB1200C4B22046DC
:1030300001F074FC0D4800880A2190FBF1F201FBBD
:103040001200C4B2204601F069FCEE2001F066FCDB
:103050000220FDF70AFE10BD1900002031000020FB
:1030600018000020300000201A0000201C00002062
:1030700010B50448008804490988884201DDFDF73D
:103080000BFC10BD1C0000202400002010B50448DB
:10309000008804490988884201DAFDF7AFFB10BDBA
:1030A0001C000020260000202DE9F047154801688B
:1030B000154803F037FD054612480168284603F01D
:1030C00083FB0446114903F061FC11490860114972
:1030D0000F48006803F078FB824603F0E7FA0646E3
:1030E0004FF040420C4B01F0E5FF04464FF0204208
:1030F0000A4B02F0CBFF804602F034FF08490880FB
:10310000BDE8F087480000203333534000002041E1
:103110004C0000200000D041F753F7BF9B9458406B
:103120001A0000202DE9F0410848008802F05EFFF7
:1031300006464FF06632064B02F0A8FF044602F046
:10314000CBFC04490860BDE8F08100003E0000208F
:1031500066664A3F4800002000BFFEE708B501212F
:10316000042000F007FF10208DF803004FF44060AA
:10317000ADF8000003208DF8020069460248FDF713
:1031800073FE00F009FE08BD0008014010B50446BA
:10319000002C0DDD4FF480611448FDF744FF4FF41F
:1031A00000611248FDF73DFFA0B200F043FE1CE0B5
:1031B0006CB94FF480610D48FDF733FF4FF40061A7
:1031C0000A48FDF72EFFA0B200F034FE0DE04FF4E8
:1031D00080610648FDF725FF4FF400610348FDF7C5
:1031E00022FF614288B200F025FE10BD00080140B8
:1031F00008B50121082000F0BDFE10208DF8030065
:103200004FF44040ADF8000003208DF802006946FD
:103210000248FDF729FE00F015FE08BD000C014034
:1032200010B50446002C0DDD4FF480411448FDF725
:10323000FAFE4FF400411248FDF7F3FEA0B200F091
:103240004FFE1CE06CB94FF480410D48FDF7E9FEDC
:103250004FF400410A48FDF7E4FEA0B200F040FE42
:103260000DE04FF480410648FDF7DBFE4FF40041CE
:103270000348FDF7D8FE614288B200F031FE10BD70
:10328000000C014000B589B00121042000F052FE7D
:103290000121084600F06EFE0121082000F06AFEC0
:1032A00018208DF823004FF40070ADF820000320A3
:1032B0008DF8220008A91D48FDF7D6FD1C4801F035
:1032C000E5F80020ADF81A00ADF8160040F6E7600A
:1032D000ADF818004720ADF8140000208DF81C0050
:1032E00005A9134801F0D8F901A801F0C2F960203E
:1032F000ADF804000220ADF80C000120ADF8060086
:1033000040F27470ADF80A0001A9094801F066F9AD
:103310000821074801F0A0F90121054801F09CF9B6
:103320000121034801F0A6F809B000BD000C0140DE
:10333000000800402DE9F04100201D49087028E0F8
:103340001C4A1B4B1B78D25C1B4B33F8124004EB1E
:10335000D4725110174A164B1B78D25C164B33F8B7
:10336000120000F09FFF1549114A1278885C02F0A4
:103370003DFE07460022124B02F088FE054602F091
:10338000F1FD0446FDF765FC09480078401C08493A
:103390000870074800781928D2DB0021094801F09D
:1033A00078F94FF4FA60FDF754FCBDE8F0810000B5
:1033B0003B00002018730008EE720008317300080B
:1033C00000404F4000080040704708B527208DF8A6
:1033D000000001208DF8030003208DF801008DF816
:1033E0000200684600F002F808BD000070B5002138
:1033F00000230F22C47804B3154C246804F4E0645D
:10340000C4F5E064210AC1F10403CA40447804FA17
:1034100003F184781440214309010E4C0678A1552C
:10342000047804F01F050124AC4005786D11AD004F
:1034300005F1E025C5F8004109E0047804F01F0516
:103440000124AC40044D0678761145F8264070BD45
:103450000CED00E000E400E080E100E002490143FF
:10346000024A1160704700000000FA050CED00E010
:1034700070B500240EE00021204600F0EAF8002597
:1034800004E0002000F078FC681CC5B2802DF8DB59
:10349000601CC4B2082CEEDB70BD000008B5012131
:1034A000082000F067FD14208DF8030003208DF83C
:1034B00002004020ADF8000069460A48FDF7D4FC40
:1034C0008020ADF8000069460648FDF7CDFC0122DA
:1034D00040210448FDF7A9FD012280210148FDF7A4
:1034E000A4FD08BD000C014070B50546002413E0A2
:1034F0008020204100EA050280210E48FDF795FD5D
:10350000012240210B48FDF790FD0022402109488F
:10351000FDF78BFD601CC4B2082CE9DB01224021C1
:103520000448FDF782FD002240210248FDF77DFDA1
:1035300070BD0000000C014010B501228021094837
:10354000FDF773FD012240210648FDF76EFD0022C4
:1035500080210448FDF769FD002240210148FDF764
:1035600064FD10BD000C014010B500228021074809
:10357000FDF75BFD012240210448FDF756FD0122C5
:1035800080210248FDF751FD10BD0000000C0140F4
:1035900070B5002406E0002500E06D1CB5F57A7FCB
:1035A000FBD3641CB4F57A7FF5D3FFF777FFAE2029
:1035B00000F0D2FBD52000F0CFFB802000F0CCFB48
:1035C000A82000F0C9FB3F2000F0C6FBD32000F08C
:1035D000C3FB002000F0C0FB402000F0BDFBA12099
:1035E00000F0BAFBC82000F0B7FBDA2000F0B4FB13
:1035F000122000F0B1FB812000F0AEFBCF2000F0E4
:10360000ABFBD92000F0A8FBF12000F0A5FBDB20EC
:1036100000F0A2FB302000F09FFBA42000F09CFBF8
:10362000A62000F099FB8D2000F096FB142000F0FE
:1036300093FBAF2000F090FBFFF71AFF70BD10B5B1
:103640000246012000E050430B1EA1F10101FAD116
:1036500010BD70B505460C4645F0B00000F07CFB8F
:10366000102141EA141000F077FB04F00F0000F085
:1036700073FB70BD2DE9F04105460E461746721EDC
:10368000D206110E6A1E5206100EFFF7E2FF00244A
:1036900009E0A7F12001134A02EB0111085D00F0D7
:1036A0006BFB601CC4B2082CF3DB721ED206110E39
:1036B0006A1E012303EB4202D0B2FFF7CAFF0024C7
:1036C0000BE0A7F12001074A02EB011204F1080107
:1036D000505C00F051FB601CC4B2082CF1DBBDE86B
:1036E000F0810000FE6C000810B512A2012108460E
:1036F00000F004FB11A20121022000F0FFFA11A248
:103700000121032000F0FAFA06234FF41652072194
:10371000012000F0A1FA06234FF4E1320721022034
:1037200000F09AFA01231A460A21032000F094FAC5
:1037300010BD000042617564313A00004261756459
:10374000323A000053746F70426974733A0000009B
:1037500010B50AA20121084600F0D0FA09A2012101
:10376000022000F0CBFA0AA20121032000F0C6FAE1
:1037700009A20121042000F0C1FA10BD46616E3A91
:10378000000000004375727461696E3A0000000029
:103790004865617465723A0048756D692D65723AC5
:1037A0000000000010B51C48007828B91BA20521B4
:1037B000012000F0A3FA04E019A20521012000F085
:1037C0009DFA1848007828B914A20921022000F0B7
:1037D00095FA04E012A20921022000F08FFA1248A3
:1037E000007828B90DA20821032000F087FA04E030
:1037F0000BA20821032000F081FA0C48007828B9B8
:1038000006A20921042000F079FA04E004A20921AB
:10381000042000F073FA10BD2E0000204F46460031
:103820004F4E00002D0000202B0000202C00002017
:1038300010B52EA20121084600F060FA2DA2012148
:10384000022000F05BFA2DA20121032000F056FABD
:103850002CA20121042000F051FA02232B48027807
:103860000621012000F0F8F90223294802780621F8
:10387000184600F0F1F927A20821012000F03EFAD5
:1038800024A20821022000F039FA022322480278FB
:103890000921012000F0E0F90223204802780921E3
:1038A000184600F0D9F904231D4802880721032097
:1038B00000F0D2F904231B4802880721184600F0C3
:1038C000CBF919A20B21012000F018FA17A20B2145
:1038D000022000F013FA16A20B21032000F00EFACA
:1038E00014A20B21042000F009FA10BD54656D707C
:1038F0003A00000048756D693A000000536D6F6B27
:10390000653A00004C696768743A000018000020AE
:10391000190000202E00000030000020310000209F
:103920001A0000201C0000204300000025000000B9
:1039300070706D004C55580010B522A20121084648
:1039400000F0DCF921A20121022000F0D7F921A228
:103950000121032000F0D2F920A20121042000F06F
:10396000CDF902231F4802780721012000F074F9E5
:1039700002231D4802780721184600F06DF9022342
:103980001A4802780721032000F066F9022318483C
:1039900002780721042000F05FF916A20A21012015
:1039A00000F0ACF913A20A21022000F0A7F912A23C
:1039B0000A21032000F0A2F90FA20A21042000F03E
:1039C0009DF910BD54656D70483A000054656D70E6
:1039D0004C3A000048756D69483A000048756D69B9
:1039E0004C3A00001E0000201F0000202000002094
:1039F00021000020430000002500000010B519A29E
:103A00000121084600F07AF918A20121022000F0F5
:103A100075F918A20121032000F070F917A2012105
:103A2000042000F06BF904231648028808210120C5
:103A300000F012F90423144802880821022000F043
:103A40000BF90423114802880821032000F004F92F
:103A500003230F4890F900200821042000F0FCF80F
:103A600010BD0000536D6F6B65483A004C69676884
:103A700074483A004C696768744C3A005370656545
:103A800064313A002200002024000020260000209B
:103A90003200002010B508A20121084600F02EF9DE
:103AA00008A20121022000F029F909A20121032026
:103AB00000F024F910BD000057616B6575704D6F03
:103AC00064650000536C6565704D6F6465000000AF
:103AD000486F6D654D6F64650000000010B508A269
:103AE0000121084600F00AF909A20121022000F094
:103AF00005F90AA20121032000F000F910BD000021
:103B00004272656174682D4C69676874000000003A
:103B100057617465722D4C69676874004D757369DF
:103B2000632D506C6179000010B50AA2012108468E
:103B300000F0E4F809A20121022000F0DFF809A258
:103B40000121032000F0DAF808A20121042000F08E
:103B5000D5F810BD4C4544313A0000004C45443284
:103B60003A0000004C4544333A0000004C454434D0
:103B70003A00000010B53048007828B92FA206217D
:103B8000012000F0BBF80DE02B480078012804D19B
:103B90002BA2062100F0B2F804E02AA2062101209F
:103BA00000F0ACF82948007828B924A206210220A8
:103BB00000F0A4F80EE025480078012805D120A2E5
:103BC0000621022000F09AF804E01EA2062102203D
:103BD00000F094F81E48007828B918A206210320A6
:103BE00000F08CF80EE01A480078012805D114A2E4
:103BF0000621032000F082F804E012A2062103202F
:103C000000F07CF81348007828B90CA206210420A3
:103C100000F074F80EE00F480078012805D108A2E2
:103C20000621042000F06AF804E006A20621042020
:103C300000F064F810BD0000400000204F46460030
:103C40004F4E00005475726E0000000041000020CD
:103C500042000020430000202DE9F04780460E4638
:103C600017461D46002415E0281B411E0A20FFF7B9
:103C7000E6FCB7FBF0F00A21B0FBF1F201FB120009
:103C800000F130093019C1B24A464046FFF7F2FC54
:103C9000601CC4B2AC42E7DBBDE8F08710B50AA2F5
:103CA0000121084600F02AF80BA20121022000F0B1
:103CB00025F80CA20121032000F020F80CA201211C
:103CC000042000F01BF810BD436C6F7365204C6935
:103CD00067687473000000004F70656E2046616E67
:103CE000000000004F70656E20446F6F720000008E
:103CF000436C6F736520446F6F7200002DE9F041D3
:103D000007460E461546002407E02A5D3019C1B269
:103D10003846FFF7AFFC601CC4B2285D0028F4D120
:103D2000BDE8F08110B505A201210846FFF7E6FFC6
:103D300005A201210220FFF7E1FF10BD4F70656E63
:103D4000204C6967687473004F70656E204375720C
:103D50007461696E0000000010B50446FFF7ECFBCB
:103D60007820FFF7C1FB0020FFF7BEFB2046FFF7DE
:103D7000BBFBFFF7F9FB10BD10B50446FFF7DCFBFA
:103D80007820FFF7B1FB4020FFF7AEFB2046FFF79E
:103D9000ABFBFFF7E9FB10BD00B589B00121084678
:103DA00000F0C8F80121042000F0E4F801210846E1
:103DB00000F0E0F818208DF823000420ADF8200072
:103DC00003208DF8220008A91948FDF74DF84FF09F
:103DD000804000F05BFB0020ADF81A00ADF8160043
:103DE0006320ADF818002320ADF8140000208DF8F2
:103DF0001C0005A94FF0804000F04EFC01A800F027
:103E000038FC6020ADF804000020ADF80C00012063
:103E1000ADF806000020ADF80A0001A94FF080407F
:103E200000F08CFB0121880700F024FB09B000BDE5
:103E30000008014010B5044621464FF0804000F0D4
:103E400026FC10BD00B589B00121084600F072F8CB
:103E50000121042000F08EF80121084600F08AF8C4
:103E600018208DF823000820ADF8200003208DF8DD
:103E7000220008A91948FCF7F7FF4FF0804000F036
:103E800005FB0020ADF81A00ADF816006320ADF870
:103E900018002320ADF8140000208DF81C0005A99F
:103EA0004FF0804000F0F8FB01A800F0E2FB70202A
:103EB000ADF804000020ADF80C000120ADF80600BC
:103EC0003220ADF80A0001A9400700F087FB01216C
:103ED000880700F0CFFA09B000BD000000080140DB
:103EE00010B5044621464FF0804000F0D2FB10BDD3
:103EF00010B504462146024800F0C7FB10BD000083
:103F00000004004010B504462146024800F0BFFB03
:103F100010BD00000008004070470000014600206E
:103F2000034A506820F44040084350607047000046
:103F30000010024029B1064AD2690243044BDA61FB
:103F400004E0034AD2698243014BDA617047000002
:103F50000010024029B1064A12690243044B1A615B
:103F600004E0034A12698243014B1A617047000062
:103F70000010024029B1064A92690243044B9A613B
:103F800004E0034A92698243014B9A617047000042
:103F90000010024029B1064AD2680243044BDA609D
:103FA00004E0034AD2688243014BDA6070470000A4
:103FB0000010024030B500210022002400232D4DC6
:103FC0006D6805F00C0121B1042905D0082923D121
:103FD00005E0294D056022E0274D05601FE0254DD5
:103FE0006D6805F47012234D6D6805F48034022568
:103FF00005EB92421CB9214D554305600BE01D4D68
:104000006D6805F400351DB11C4D5543056002E097
:10401000194D5543056002E0174D056000BF00BF14
:10402000144D6D6805F0F0010909154D6B5C0568CC
:10403000DD4045600F4D6D6805F4E061090A104DE3
:104040006B5C4568DD4085600A4D6D6805F4605124
:10405000C90A0B4D6B5C4568DD40C560054D6D6858
:1040600005F44041890B074D6B5CC568B5FBF3F562
:10407000056130BD0010024000127A0000093D00C9
:10408000000000201000002010B5FEF7A9FC4FF43E
:10409000FA70FCF7DEFDFEF795FCFEF7D7FC4FF457
:1040A000FA70FCF7D6FDFEF7C3FCFEF705FD4FF4F2
:1040B000FA70FCF7CEFDFEF7F1FCFEF735FD4FF48C
:1040C000FA70FCF7C6FDFEF721FDFEF761FD4FF427
:1040D000FA70FCF7BEFDFEF751FD10BD7047000001
:1040E00000B589B001210920FFF744FF012102201A
:1040F000FFF720FF2020ADF8200018208DF82300C6
:1041000003208DF8220008A91A48FCF7ADFE012112
:104110001948FCF735FF194800F0B8F90020ADF850
:104120001A00ADF8160044F61F60ADF818004720DD
:10413000ADF8140000208DF81C0005A90F4800F010
:10414000ABFA01A800F095FA6020ADF80400002059
:10415000ADF80C000120ADF806000020ADF80A0013
:1041600001A9064800F098F90121044800F082F9FD
:1041700009B000BD000C014000081A000004004016
:104180002DE9F04104460A49204602F01DFB804615
:10419000084902F0FBFB0746074902F0B3FA06465E
:1041A00002F0D4FB85B22846FFF7A2FEBDE8F081FD
:1041B000000034430000FA440000FA4310B500F058
:1041C00001F810BD0CB50020019000903348006844
:1041D00040F480303149086000BF3048006800F486
:1041E000003000900198401C0190009818B9019887
:1041F000B0F5A06FF1D12948006800F4003010B18B
:104200000120009001E0002000900098012843D197
:104210002348006840F01000214908600846006803
:1042200020F0030008600846006840F002000860C3
:104230001A4840681949486008464068486008467E
:10424000406840F4806048600846406820F47C1074
:1042500048600846406840F4E81048600846006836
:1042600040F08070086000BF0C48006800F00070EB
:104270000028F9D00948406820F003000749486049
:104280000846406840F00200486000BF03484068AC
:1042900000F00C000828F9D10CBD0000001002400D
:1042A0000020024070B504460D462146034800F048
:1042B000EAF92946014800F0ECF970BD0008004019
:1042C00010B537480078052814D136480078012801
:1042D00010D13548007804280CD1344800780228E1
:1042E00008D1FFF7C5F832A201210846FFF706FD05
:1042F000FCF728FA2A480078052814D129480078C4
:10430000022810D12848007804280CD127480078CA
:10431000022808D1FFF7ACF829A201210846FFF7CF
:10432000EDFCFCF779FD1E480078052819D11D48E1
:104330000078032815D11C480078042811D11B48A7
:10434000007802280DD1FFF793F81FA2012108463B
:10435000FFF7D4FC00202049086008460068FFF7FA
:104360000FFF0F480078052819D10E48007804285F
:1043700015D10D480078042811D10C480078022886
:104380000DD1FFF775F815A201210846FFF7B6FC1D
:1043900016481149086008460068FFF7F1FE10BD95
:1043A0003400002035000020280000202F000020CD
:1043B000416C6C204C6967687473204F464600005E
:1043C00046616E204F4E0000446F6F72206973206B
:1043D0004F70656E696E670050000020446F6F7209
:1043E00020697320436C6F73696E67000000B442EC
:1043F00010B50548008805490988884203DDFEF7A5
:10440000D1FBFCF755FC10BD1A0000202200002053
:104410007047000010B51348006840F001001149D2
:10442000086008464068104908400E494860084640
:1044300000680E4908400B4908600846006820F4EF
:10444000802008600846406820F4FE0048604FF471
:104450001F008860FFF7B2FE4FF00060044908605B
:1044600010BD0000001002400000FFF8FFFFF6FE44
:1044700008ED00E021B1028842F00102028004E070
:1044800002884FF6FE731A400280704701894FF68A
:10449000F87211400181704770B50024002200239A
:1044A000058C4FF6EF7635400584028C8388048BAB
:1044B00048F6FF752C404FF6FF452C400D884FF60F
:1044C000FF7606EA05252C434FF6DF752A400D8955
:1044D00006EA05152A434D8806EA05152A43154DB7
:1044E000A84202D0144DA8421DD14FF67F752A4034
:1044F0004D894FF6FF7606EA05152A434FF6BF753C
:104500002A408D8806EA05152A434FF6FF352B40D1
:104510004FF2FF752B408D8906EA85052B43CD8927
:1045200006EA85052B4383800483CD8805870284B2
:1045300070BD0000002C01400034014070B5002423
:1045400000220023058C4FF6FF6635400584028C5F
:104550008388848B4FF68F752C404FF6FC752C406A
:104560000D882C434FF6FF552A400D894FF6FF76F4
:1045700006EA05252A434D8806EA05252A43154DF6
:10458000A84202D0144DA8421DD14FF2FF752A4017
:104590004D894FF6FF7606EA05252A434FF6FF358B
:1045A0002A408D8806EA05252A434EF6FF752B40E2
:1045B0004DF6FF752B408D8906EA05152B43CD89F5
:1045C00006EA05152B4383808483CD888587028482
:1045D00070BD0000002C01400034014070B5002285
:1045E00000230024058C4EF6FF7635400584038CAD
:1045F0008488828B48F6FF752A404FF6FF452A4093
:104600000D884FF6FF7606EA05252A434DF6FF751D
:104610002B400D8906EA05352B434D8806EA053502
:104620002B430B4DA84202D00A4DA84208D14BF6AD
:10463000FF752C408D894FF6FF7606EA85152C43D1
:1046400084808283CD88A0F84050038470BD000030
:10465000002C0140003401400A460021818B4FF2BA
:10466000FF7319404FF6FF7303EA02231943818356
:1046700070470021018041808180C180018141819A
:104680008181C1817047818570470187704781872B
:104690007047A0F840107047002202881D4B9842D6
:1046A0000ED01D4B98420BD0B0F1804F08D01B4B61
:1046B000984205D01A4B984202D01A4B984204D126
:1046C0004FF68F731A404B881A43174B984207D006
:1046D000164B984204D04FF6FF431A40CB881A433A
:1046E00002808B8883850B8803850A4B98420BD008
:1046F000094B984208D00E4B984205D00D4B98427A
:1047000002D00D4B984201D10B7A0386012383829C
:1047100070470000002C01400034014000040040BC
:1047200000080040000C0040001000400014004051
:1047300000400140004401400048014010B50748D6
:10474000007807490978884207DDFEF757F9FEF738
:104750006FF9FCF7ABFCFCF7ABFA10BD18000020BA
:104760001E00002010B506480078064909788842E6
:1047700005DAFEF779F9FEF725F9FCF7CBFC10BD59
:10478000180000201F00002010B586B0044601214B
:104790008803FFF7EFFB01210420FFF7EBFB01216A
:1047A0000846FFF7E7FB18208DF817004FF400705C
:1047B000ADF8140003208DF8160005A90D48FCF78C
:1047C00053FB01940020ADF810000820ADF80E0056
:1047D0000020ADF80C00ADF80A00ADF8080001A902
:1047E000054800F071F90121034800F0B6F806B061
:1047F00010BD0000000801400038014010B504461B
:104800002146054800F0DBF900BF8021024800F096
:10481000FFF80028F9D010BD003801402DE9F04123
:1048200006460C46002512E0601B411E0A2000F0DF
:10483000B7F9B6FBF0F00A21B0FBF1F201FB120070
:1048400000F130073846FFF7D9FF681CC5B2A54212
:10485000EADBBDE8F08170B50446002504E0605D48
:10486000FFF7CCFF681CC5B2605D0028F7D170BDB2
:1048700010B5FEF753FA10BD10B586B004460121FD
:104880000820FFF777FB01218804FFF753FB18206E
:104890008DF817004FF48060ADF8140003208DF8F8
:1048A000160005A91B48FCF7DFFA04208DF8170055
:1048B0004002ADF8140003208DF8160005A9154834
:1048C000FCF7D2FA144800F055F801940020ADF836
:1048D00010000C20ADF80E000020ADF80C00ADF873
:1048E0000A00ADF8080001A90B4800F0EDF84FF4FC
:1048F000A060FEF7B3FDFEF768FD012240F22551EE
:10490000054800F0BCF80121034800F026F806B085
:1049100010BD0000000C01400048004010B50446E6
:104920002146054800F04BF900BF8021024800F005
:104930006FF80028F9D010BD0048004010B50022E3
:10494000002340F66A14A14200D100BF0A120124DC
:104950009440A3B2DC43048010BD21B1828942F4AB
:104960000052828104E082894DF6FF731A408281F1
:104970007047000010B504462048844209D1012147
:104980008803FFF707FB00214FF48040FFF702FB8D
:1049900032E01B48844209D101214804FFF7DAFACA
:1049A00000214FF40030FFF7D5FA25E01548844286
:1049B00009D101218804FFF7CDFA00214FF48020AE
:1049C000FFF7C8FA18E01048844209D10121C80451
:1049D000FFF7C0FA00214FF40020FFF7BBFA0BE00D
:1049E0000A48844208D101210805FFF7B3FA0021E3
:1049F0004FF48010FFF7AEFA10BD00000038014000
:104A00000044004000480040004C0040005000407E
:104A100002460020B1F5007F00D100BF13880B4093
:104A20000BB1012000E00020704770B50246002461
:104A300000230025002040F66A16B14200D100BFD5
:104A4000C1F3421501F01F03012606FA03F3012DFD
:104A500002D19689334006E0022D02D1168A3340F6
:104A600001E0968A33400C12012606FA04F41688F7
:104A7000344013B10CB1012000E0002070BDF0B54E
:104A80000346002400260025002040F66A17B9429C
:104A900000D100BF1846C1F3421401F01F060127E0
:104AA00007FA06F5012C01D10C3004E0022C01D1EB
:104AB000103000E014301AB107682F43076002E09D
:104AC0000768AF430760F0BD2DE9F04786B00546A3
:104AD0000E460024A24600BFA1460027B08900B1BF
:104AE00000BF2F462C8A4CF6FF700440F088044328
:104AF0002C82AC894EF6F3100440B088318908430B
:104B0000718908430443AC81AC8A4FF6FF400440EE
:104B1000B0890443AC8201A8FFF74CFA1F488742D2
:104B200002D1DDF810A001E0DDF80CA0A88900F4A6
:104B3000004040B10AEBCA0000EB0A10316849009E
:104B4000B0FBF1F807E00AEBCA0000EB0A1031688D
:104B50008900B0FBF1F86420B8FBF0F004012009F3
:104B6000642101FB1089A88900F4004040B1322083
:104B700000EBC900B0FBF1F000F00700044308E0CF
:104B8000322000EB09106421B0FBF1F000F00F00BF
:104B900004432C8106B0BDE8F087000000380140D6
:104BA00010B50246012000E050430B1EA1F10101A7
:104BB000FAD110BD01468888C0F308007047C1F3E0
:104BC00008028280704700BFFEE7000010B5194858
:104BD0000078052814D118480078012810D117480A
:104BE000007801280CD116480078042808D1FEF777
:104BF0003FFC14A201210846FFF780F8FBF7B1FD46
:104C00000C480078052814D10B480078022810D1F0
:104C10000A48007801280CD109480078042808D1F6
:104C2000FEF726FC0BA201210846FFF767F8FBF709
:104C3000E3FE10BD34000020350000202F000020CE
:104C400028000020416C6C204C6967687473204F09
:104C50004E0000004375727461696E204F4E000073
:104C600010B5114800781149097888421BDD1048B9
:104C7000007803280FD10F48007804280BD10E4884
:104C80000078032807D10D480078022803D10C488A
:104C90000078012807D04FF400410A48FCF7C1F919
:104CA00000200649087010BD1900002021000020D6
:104CB0003400002035000020280000202C000020B7
:104CC000360000200008014010B510480078104957
:104CD0000978884219DA0F48007803280DD10E4868
:104CE0000078042809D10D480078032805D10C4824
:104CF000007810B90B48007838B14FF400410A48E9
:104D0000FCF791F901200649087010BD1900002038
:104D10002100002034000020350000202800002061
:104D20002C000020360000200008014008B50121B9
:104D30000420FFF71FF910208DF80300C002ADF822
:104D4000000003208DF8020069460448FCF78CF847
:104D50004FF400410148FCF764F908BD0008014028
:104D600010B51048007803281AD10F48007804289D
:104D700016D10E480078032812D108210C48FCF700
:104D800047F968B90B48007850B10B48007838B93A
:104D90004FF400410948FCF744F900200549087028
:104DA00010BD000034000020350000202800002045
:104DB000000C01402C0000203600002000080140BB
:104DC00010B51048007803281AD10F48007804283D
:104DD00016D10E480078032812D108210C48FCF7A0
:104DE00017F968B90B48007850B90B4800780128CA
:104DF00006D1C1030948FCF716F9022005490870DD
:104E000010BD0000340000203500002028000020E4
:104E1000000C01402C00002036000020000801405A
:104E20002DE9FF5F1C48008801F0E0F806461B4AA8
:104E30001B4B01F02BF9804642460B4619481A4994
:104E400000F038F904460022184B01F01FF98246A1
:104E50008B461148008801F0C9F88046144A154B6A
:104E600001F014F9064632460B460E480E4900F092
:104E700021F904460022104B01F008F952465B4626
:104E8000CDE9000100F05AFECDE9020101F06AF817
:104E90000A490880BDE8FF9F3C000020D2544FE63D
:104EA0001F7D63BF90F7AA9509BF05400016AB4070
:104EB000B4AB90F2936A8FBF4070E3401C000020B7
:104EC000490050EAC12018BF04204A0D18BF40F025
:104ED000010040F2FF72B2EB515F08BF40F00200E8
:104EE000012808BF052070472DE9F0414F1E00EB57
:104EF000C7010446D1E9000115461E4637F00602F7
:104F00000DD02A46334601F0C1F87F1E04EBC703DB
:104F1000D3E9002300F012FE37F00602F1D1022F90
:104F200025D0042F13D0062F18BFBDE8F0812A46E4
:104F3000334601F0ABF8D4E90A2300F0FFFD2A461E
:104F4000334601F0A3F8D4E9082300F0F7FD2A4620
:104F5000334601F09BF8D4E9062300F0EFFD2A4622
:104F6000334601F093F8D4E9042300F0E7FD2A4624
:104F7000334601F08BF8D4E9022300F0DFFD2A4626
:104F8000334601F083F8D4E90023BDE8F04100F096
:104F9000D5BD0000002213461046014900F08ABE2C
:104FA0000000F03F00F0CABD002213461046114633
:104FB00000F080BE40F2013200204FF0E04101F0ED
:104FC00058BE0000024A0020110701F052BE000046
:104FD00001FDFFFFFEF7DCFA4FF41650FFF7D4FB9C
:104FE0004FF4E130FFF748FCFBF77AFDFDF768FE70
:104FF000FBF716FAFBF714FE0220FBF736FEFCF770
:1050000039F8FCF73BFBFBF7BBFBFEF7A7F8FEF715
:10501000EFF8FCF7B1F8FFF789FEFFF761F839E028
:105020001D4B1E4A1E491F48FBF7ADFD0A210020FB
:10503000FCF700F81C4908800A210620FBF7FAFF5C
:105040001A490880FEF76EF8FEF72EF8FFF7E8FE23
:10505000FCF710FA16490870FCF79AFCFDF73EF9C8
:10506000FCF71EFDFCF75EFBFDF772FCFFF766FB2D
:10507000FFF778FBFCF7D8F9FCF7EAF9FDF7F8FF42
:10508000FEF704F8FFF7B4F9FCF7A4F9FBF716FAFA
:10509000FDF71EFFC4E700003100002030000020B3
:1050A00019000020180000203E0000203C000020D5
:1050B000280000202DE9F04D1D460C4698B01746FB
:1050C00021F0004123F00043002814BF4FF0010CF1
:1050D0004FF0000C0CEB440CFE4A0CEB02064FEABE
:1050E000620C66452BD33E0018BF012606EB450631
:1050F0001644F94A964222D3F84A53EA070C02D0E2
:10510000944205D148B918B000201146BDE8F08D91
:10511000002808BF4FF0000C01D04FF0010C0CEB41
:10512000440212F5001F0AD8002F14BF4FF0010CE3
:105130004FF0000C0CEB450212F5001F07D918B018
:105140003A462B462146BDE8F04DFFF72BBF002223
:10515000DFF88CA3002CB8BF534526DADFF884C3F0
:105160006345A8BF022220DADFF870C39C451CDC2F
:10517000DFF874C30CEB235CBCF1140F08DDCCF139
:10518000340627FA06FC0CFA06F6BE420DD108E0FA
:105190005FB9CCF1140623FA06FC0CFA06F69E421F
:1051A00003D10CF00102C2F1020251EA000C19D144
:1051B000002D17DA002C18BF022A01D0012A07D0CF
:1051C0000220FBF709F818B0BDE8F04DFFF7E2BE8A
:1051D0000220FBF701F8FFF7DDFE18B081F0004177
:1051E000BDE8F08DB7F1000C6CD1534525D104F129
:1051F000804212F5801201BF00280020B74918B084
:1052000008BFBDE8F08DB548884207DC002DA1BF7E
:105210006046294618B0BDE8F08D07E0281E05DA83
:1052200080F0004118B06046BDE8F08DAF49794488
:10523000D1E9000118B0BDE8F08DDFF8A0C26345E8
:1052400025D1002D1FDA19B1514512D1D8B909E085
:10525000002840F0EC82A24A214618B062F31E01F9
:10526000BDE8F08D0020214618B060F31E01BDE8B6
:10527000F08D08DA18B02346BDE8F04D0246002054
:10528000614600F017BD18B02146BDE8F08D5145CC
:1052900018DAB5F1804F0DD0A5F1005CBCF1FF5CD0
:1052A00010D1B4F1000C0DDB18B06146BDE8F04D33
:1052B00000F0ECBB234618B00246BDE8F04D19469D
:1052C00000F0E4BE060024F0004C3BD1D9B15145BA
:1052D00033D1002C06DD002DA1BF0020514618B0AF
:1052E000BDE8F08D002C01DD002D1BDB002C13DA56
:1052F000002D11DB012A4FF0000014BF78497C49D2
:1053000018B0BDE8F08D022A18BF002C0AD0012A7F
:1053100008D1002C06DA0AE0002CB8BF002D11DA03
:10532000012A04D0002018B00146BDE8F08D18B065
:1053300000204FF00041BDE8F08DA1F14050B0F1E8
:105340007F601AD0012000EBE47050EA020421D003
:10535000624C521E4FF0000B104304BF4FF0000B85
:10536000644C654883427CDD644A654893421FDD96
:10537000884217DB002D25DB37E0002C00DA4AB12C
:10538000022A0CBF01204FF0FF3018B0BDE8F04DED
:1053900000F015BE0120FAF71FFF18B0BDE8F04D70
:1053A000FFF702BE4D4A8A4202DC002D0ADC1CE0F7
:1053B000814202DA002D18DA04E0484B994220DDE0
:1053C000002D12DD0220FAF707FFFFF7F3FD054677
:1053D0000E46002253465846214600F057FE18B0AC
:1053E00066F31E012846BDE8F08D0220FAF7F4FEB0
:1053F000FFF7E8FD0A46214618B062F31E01BDE83A
:10540000F08D00223046614601F066F880460E4677
:105410006FF0010201F02DFC4FF05532394B00F0D6
:1054200069FF4246334600F031FE0022364B00F061
:1054300061FF82464246334604911046194600F009
:1054400025FE5246049B00F021FE8A4600904FF054
:10545000C0422E4B4046314600F018FE2C4A2B4BE2
:1054600000E027E0CDE906015146009800F00EFE6D
:1054700082460191274A284B4046314600F006FEFD
:105480005246019B01F028F882460B4602460591E0
:10549000DDE9060100F052FBDDE90623002688461F
:1054A000304601F019F85246059B00F023FF0246F2
:1054B00000F07EB90020B1F5801F07DA35223046B2
:1054C000614601F0D6FB06466FF0340000EB215038
:1054D00024E00000FFFF1F00FFFF0F000000F03F6F
:1054E0000000F07F0000404301FCFFFFA621000008
:1054F0000000F0FF0000F0BF0000E0410000F043BA
:10550000FFFFEF3F5555D53F0000E03F4715F73F00
:10551000FE822B6544DF5DF80BAE543EA0F2FF30F7
:105520000190C1F3130040F07F6141F040510291BE
:10553000FE498842D8BF002004DDFD498142C8BF32
:10554000012001DD0D9008E000200D900198401C25
:1055500001900298A0F5801002900299F5487844D5
:105560000B910D9900EBC100D0E900230F93304659
:105570000A920B9900F0B0FFCDE90601DDE90A219E
:1055800030460F9B00F0DAFA02460B460020EA494B
:1055900000F090FB059102460B460090DDE9060104
:1055A00000F074FD1490E5488A464FF000087844F6
:1055B0000299006812904FF0005040EA61010D9886
:1055C0000F9B01EB804000F5002109910A9A129887
:1055D00000F082FF32460B9B00F08CFE42465346A1
:1055E00000F054FD0646029140465146099B129A2E
:1055F00000F04CFDDDE9062300F07CFE3246029B04
:1056000000F06AFF059B009A00F040FD0091149A9B
:10561000049053461046194600F038FD06460246EF
:10562000C7480B46029106217844FFF75DFCCDE99F
:105630000510029B32461046194600F027FDDDE9B1
:10564000053200F023FD05910646534640461946B3
:10565000149A00F073FA009B049A00F017FD32468A
:10566000059B00F06BFACDE9051042465346104603
:10567000194600F00BFD0022B24B02910A9000F097
:105680005DFADDE9053200F059FA0E464246AD4BAF
:10569000404600F021FF029B0A9A00F01DFFDDE961
:1056A000053200F027FE424602910A90334610462A
:1056B000514600F0EBFCCDE906015346149A0299DD
:1056C0000A9800F0E3FC8A4602903346424600996D
:1056D000049800F0DBFC5346029A00F02FFA824651
:1056E0000B4602460591DDE9060100F027FADDE9E7
:1056F000062300208846064600F0EEFE5246059B33
:1057000000F0F8FD824609914FF060428E4B304622
:10571000414600F0BBFC049006918C4A8A4B5046EF
:10572000099900F0B3FC82460291894A894B3046C0
:10573000414600F0ABFC5246029B00F0FFF9864B5D
:105740007B440D9A03EBC203D3E9002300F0F6F982
:105750000E900791019800F032FC0591DDE90613E7
:1057600082460E9A049800F0E9F97C4A7A440D9B2F
:1057700002EBC303D3E900230093029200F0DEF9A9
:105780005246059B00F0DAF900268846524630461C
:10579000059B00F0A1FE009B029A00F09DFE069B77
:1057A000049A00F099FE079B0E9A00F0A3FD0246B2
:1057B00000200B4602903846294600F067FC8246DE
:1057C00001912B4638461946029A00F085FE324672
:1057D000434600F05BFC5246019B00F0AFF90746E0
:1057E0008A46324643462946029800F04FFC054659
:1057F0000E463A46534600F0A1F9594A884691426E
:1058000021DBA8EB020353EA000210D12A463346FB
:1058100000F062FECDE90401524A534B384651462E
:1058200000F08CF9DDE9042300F02EFD21D20220E6
:10583000FAF7D2FCFFF7BEFB0A46214618B062F326
:105840001E01BDE8F08D494B28F000429A4210D36A
:10585000474A08EB020353EA00027FF4C6AD2A462A
:10586000334600F039FE3A46534600F00DFD7FF610
:10587000BCAD0022019228F000403E493E4A01EBB7
:105880002051824223DA481C4FF4801121FA00F0A3
:1058900040443A4AC0F30A517A44394BA1F2FF31ED
:1058A000CB4020EA0303C0F3130040F48010C1F1A1
:1058B0001401C84012680190B8F1000FBCBF40420B
:1058C00001902846314600F007FE05460E462A465E
:1058D00033463846514600F031F94FF00008424651
:1058E000284B4046059100F0D1FBCDE90601264A40
:1058F000264B4046059900F0C9FB009102902A46CC
:1059000033464046059900F0E7FD3A46534600F01D
:10591000F1FC1F4A1F4B00F0B9FB009B029A00F0FC
:105920000DF90746884602460B4635E08E9803007F
:105930007AB60B00EE1D00000000F03F261E0000AE
:10594000541D00000000084009C7EE3FFD033ADC8B
:10595000F5015B14E02F3EBE2C1C0000F01B000084
:1059600000009040FE822B654715973C00CC90408C
:1059700000346F3F01FCFFFF0000E03F3C1B0000D4
:10598000FFFF0F00432EE63F396CA80C615C20BE80
:10599000EF39FAFE422EE63FDDE9060100F0CEF8CF
:1059A000DDE9062305460E4600F096FD3A464346DD
:1059B00000F0A0FC0F462A463346009010461946D8
:1059C00000F064FB824602462E4888460B460521BD
:1059D0007844FFF789FA5246434600F057FB2A46BF
:1059E000334600F087FC80468A463B4628463146CF
:1059F000009A00F04BFB3B46009A00F09FF806919E
:105A0000009000224FF080434046514600F064FD74
:105A10000F460C90424653462846314600F036FB6E
:105A20003B460C9A00F046F9069B009A00F054FDA4
:105A30002A46334600F050FD0022134B00F05AFC7A
:105A4000054601980E4601EB00510815002810DCB0
:105A500028463146019A01F00CF9FFF731FA042883
:105A600008BFFFF7AFFA28463146019A01F001F965
:105A700005460B4618B02A4658462146BDE8F04D6B
:105A800000F004BBDC1900000000F03F2DE9F041FC
:105A900006460F4600F03AFC041E0D4618BF0120D2
:105AA000284320F00040C0F17F6000F1E040C00FCB
:105AB0000ED0301C18BF0120384320F00040C0F148
:105AC0007F6000F1E040C00F04BF0120FAF784FBC3
:105AD00020462946BDE8F08121F00042A2F1605243
